{
  "contractName": "Coinflip",
  "abi": [
    {
      "inputs": [],
      "stateMutability": "payable",
      "type": "constructor"
    },
    {
      "anonymous": false,
      "inputs": [
        {
          "indexed": false,
          "internalType": "bytes32",
          "name": "returnedQueryID",
          "type": "bytes32"
        },
        {
          "indexed": false,
          "internalType": "uint256",
          "name": "betResult",
          "type": "uint256"
        },
        {
          "indexed": false,
          "internalType": "uint256",
          "name": "netamount",
          "type": "uint256"
        },
        {
          "indexed": false,
          "internalType": "bytes",
          "name": "proof",
          "type": "bytes"
        }
      ],
      "name": "QueryCompleted",
      "type": "event"
    },
    {
      "anonymous": false,
      "inputs": [
        {
          "indexed": false,
          "internalType": "bytes32",
          "name": "InitialQueryID",
          "type": "bytes32"
        }
      ],
      "name": "QueryInitiated",
      "type": "event"
    },
    {
      "inputs": [],
      "name": "owner",
      "outputs": [
        {
          "internalType": "address",
          "name": "",
          "type": "address"
        }
      ],
      "stateMutability": "view",
      "type": "function"
    },
    {
      "inputs": [],
      "name": "resulttest",
      "outputs": [
        {
          "internalType": "bytes",
          "name": "",
          "type": "bytes"
        }
      ],
      "stateMutability": "view",
      "type": "function"
    },
    {
      "inputs": [
        {
          "internalType": "bytes32",
          "name": "_queryId",
          "type": "bytes32"
        },
        {
          "internalType": "string",
          "name": "_result",
          "type": "string"
        },
        {
          "internalType": "bytes",
          "name": "_proof",
          "type": "bytes"
        }
      ],
      "name": "__callback",
      "outputs": [],
      "stateMutability": "nonpayable",
      "type": "function"
    },
    {
      "inputs": [],
      "name": "Flip",
      "outputs": [],
      "stateMutability": "payable",
      "type": "function"
    },
    {
      "inputs": [
        {
          "internalType": "uint256",
          "name": "amount",
          "type": "uint256"
        }
      ],
      "name": "withdraw",
      "outputs": [],
      "stateMutability": "nonpayable",
      "type": "function"
    }
  ],
  "bytecode": "0x6080604052336000806101000a81548173ffffffffffffffffffffffffffffffffffffffff021916908373ffffffffffffffffffffffffffffffffffffffff16021790555062000059603060f81b6200005f60201b60201c565b62000a58565b600073ffffffffffffffffffffffffffffffffffffffff16600260009054906101000a900473ffffffffffffffffffffffffffffffffffffffff1673ffffffffffffffffffffffffffffffffffffffff161480620000ef57506000620000ed600260009054906101000a900473ffffffffffffffffffffffffffffffffffffffff16620003a360201b60201c565b145b156200010957620001076000620003ae60201b60201c565b505b600260009054906101000a900473ffffffffffffffffffffffffffffffffffffffff1673ffffffffffffffffffffffffffffffffffffffff166338cc48316040518163ffffffff1660e01b8152600401602060405180830381600087803b1580156200017457600080fd5b505af115801562000189573d6000803e3d6000fd5b505050506040513d6020811015620001a057600080fd5b810190808051906020019092919050505073ffffffffffffffffffffffffffffffffffffffff16600160009054906101000a900473ffffffffffffffffffffffffffffffffffffffff1673ffffffffffffffffffffffffffffffffffffffff1614620002ef57600260009054906101000a900473ffffffffffffffffffffffffffffffffffffffff1673ffffffffffffffffffffffffffffffffffffffff166338cc48316040518163ffffffff1660e01b8152600401602060405180830381600087803b1580156200027157600080fd5b505af115801562000286573d6000803e3d6000fd5b505050506040513d60208110156200029d57600080fd5b8101908080519060200190929190505050600160006101000a81548173ffffffffffffffffffffffffffffffffffffffff021916908373ffffffffffffffffffffffffffffffffffffffff1602179055505b600160009054906101000a900473ffffffffffffffffffffffffffffffffffffffff1673ffffffffffffffffffffffffffffffffffffffff1663688dcfd7826040518263ffffffff1660e01b815260040180827effffffffffffffffffffffffffffffffffffffffffffffffffffffffffffff19168152602001915050600060405180830381600087803b1580156200038757600080fd5b505af11580156200039c573d6000803e3d6000fd5b5050505050565b6000813b9050919050565b6000620003c0620003c760201b60201c565b9050919050565b600080620003ef731d3b2638a7cc9f2cb3d298a3da7a90b67e5506ed620003a360201b60201c565b11156200049b57731d3b2638a7cc9f2cb3d298a3da7a90b67e5506ed600260006101000a81548173ffffffffffffffffffffffffffffffffffffffff021916908373ffffffffffffffffffffffffffffffffffffffff160217905550620004916040518060400160405280600b81526020017f6574685f6d61696e6e65740000000000000000000000000000000000000000008152506200099660201b60201c565b6001905062000993565b6000620004c273c03a2615d5efaf5f49f60b7bb6583eaec212fdf1620003a360201b60201c565b11156200056e5773c03a2615d5efaf5f49f60b7bb6583eaec212fdf1600260006101000a81548173ffffffffffffffffffffffffffffffffffffffff021916908373ffffffffffffffffffffffffffffffffffffffff160217905550620005646040518060400160405280600c81526020017f6574685f726f707374656e3300000000000000000000000000000000000000008152506200099660201b60201c565b6001905062000993565b60006200059573b7a07bcf2ba2f2703b24c0691b5278999c59ac7e620003a360201b60201c565b1115620006415773b7a07bcf2ba2f2703b24c0691b5278999c59ac7e600260006101000a81548173ffffffffffffffffffffffffffffffffffffffff021916908373ffffffffffffffffffffffffffffffffffffffff160217905550620006376040518060400160405280600981526020017f6574685f6b6f76616e00000000000000000000000000000000000000000000008152506200099660201b60201c565b6001905062000993565b60006200066873146500cfd35b22e4a392fe0adc06de1a1368ed48620003a360201b60201c565b1115620007145773146500cfd35b22e4a392fe0adc06de1a1368ed48600260006101000a81548173ffffffffffffffffffffffffffffffffffffffff021916908373ffffffffffffffffffffffffffffffffffffffff1602179055506200070a6040518060400160405280600b81526020017f6574685f72696e6b6562790000000000000000000000000000000000000000008152506200099660201b60201c565b6001905062000993565b60006200073b73a2998efd205fb9d4b4963afb70778d6354ad3a41620003a360201b60201c565b1115620007e75773a2998efd205fb9d4b4963afb70778d6354ad3a41600260006101000a81548173ffffffffffffffffffffffffffffffffffffffff021916908373ffffffffffffffffffffffffffffffffffffffff160217905550620007dd6040518060400160405280600a81526020017f6574685f676f65726c69000000000000000000000000000000000000000000008152506200099660201b60201c565b6001905062000993565b60006200080e736f485c8bf6fc43ea212e93bbf8ce046c7f1cb475620003a360201b60201c565b11156200087457736f485c8bf6fc43ea212e93bbf8ce046c7f1cb475600260006101000a81548173ffffffffffffffffffffffffffffffffffffffff021916908373ffffffffffffffffffffffffffffffffffffffff1602179055506001905062000993565b60006200089b7320e12a1f859b3feae5fb2a0a32c18f5a65555bbf620003a360201b60201c565b111562000901577320e12a1f859b3feae5fb2a0a32c18f5a65555bbf600260006101000a81548173ffffffffffffffffffffffffffffffffffffffff021916908373ffffffffffffffffffffffffffffffffffffffff1602179055506001905062000993565b6000620009287351efaf4c8b3c9afbd5ab9f4bbc82784ab6ef8faa620003a360201b60201c565b11156200098e577351efaf4c8b3c9afbd5ab9f4bbc82784ab6ef8faa600260006101000a81548173ffffffffffffffffffffffffffffffffffffffff021916908373ffffffffffffffffffffffffffffffffffffffff1602179055506001905062000993565b600090505b90565b8060039080519060200190620009ae929190620009b2565b5050565b828054600181600116156101000203166002900490600052602060002090601f016020900481019282601f10620009f557805160ff191683800117855562000a26565b8280016001018555821562000a26579182015b8281111562000a2557825182559160200191906001019062000a08565b5b50905062000a35919062000a39565b5090565b5b8082111562000a5457600081600090555060010162000a3a565b5090565b6139398062000a686000396000f3fe60806040526004361061004a5760003560e01c80632e1a7d4d1461004f57806338bbfa501461008a57806381d7788f146101f35780638da5cb5b146101fd578063a376f6631461023e575b600080fd5b34801561005b57600080fd5b506100886004803603602081101561007257600080fd5b81019080803590602001909291905050506102ce565b005b34801561009657600080fd5b506101f1600480360360608110156100ad57600080fd5b8101908080359060200190929190803590602001906401000000008111156100d457600080fd5b8201836020820111156100e657600080fd5b8035906020019184600183028401116401000000008311171561010857600080fd5b91908080601f016020809104026020016040519081016040528093929190818152602001838380828437600081840152601f19601f8201169050808301925050505050505091929192908035906020019064010000000081111561016b57600080fd5b82018360208201111561017d57600080fd5b8035906020019184600183028401116401000000008311171561019f57600080fd5b91908080601f016020809104026020016040519081016040528093929190818152602001838380828437600081840152601f19601f820116905080830192505050505050509192919290505050610370565b005b6101fb61061a565b005b34801561020957600080fd5b506102126106e8565b604051808273ffffffffffffffffffffffffffffffffffffffff16815260200191505060405180910390f35b34801561024a57600080fd5b5061025361070c565b6040518080602001828103825283818151815260200191508051906020019080838360005b83811015610293578082015181840152602081019050610278565b50505050905090810190601f1680156102c05780820380516001836020036101000a031916815260200191505b509250505060405180910390f35b60008054906101000a900473ffffffffffffffffffffffffffffffffffffffff1673ffffffffffffffffffffffffffffffffffffffff163373ffffffffffffffffffffffffffffffffffffffff161461032657600080fd5b3373ffffffffffffffffffffffffffffffffffffffff166108fc829081150290604051600060405180830381858888f1935050505015801561036c573d6000803e3d6000fd5b5050565b6103786107aa565b73ffffffffffffffffffffffffffffffffffffffff163373ffffffffffffffffffffffffffffffffffffffff16146103af57600080fd5b60006103bc848484610acc565b60ff16146103c957600080fd5b81600690805190602001906103df929190613765565b5060006002836040516020018082805190602001908083835b6020831061041b57805182526020820191506020810190506020830392506103f8565b6001836020036101000a0380198251168184511680821785525050505050509050019150506040516020818303038152906040528051906020012060001c8161046057fe5b069050806007600086815260200190815260200160002060020181905550600160076000868152602001908152602001600020600201541415610534576007600085815260200190815260200160002060000160009054906101000a900473ffffffffffffffffffffffffffffffffffffffff1673ffffffffffffffffffffffffffffffffffffffff166108fc60026007600088815260200190815260200160002060010154029081150290604051600060405180830381858888f19350505050158015610532573d6000803e3d6000fd5b505b7fc60cd3103e975935a1f11c0f69998be44b676b15595e9ddc289b1620ecbfb6c08460076000878152602001908152602001600020600201546007600088815260200190815260200160002060010154856040518085815260200184815260200183815260200180602001828103825283818151815260200191508051906020019080838360005b838110156105d75780820151818401526020810190506105bc565b50505050905090810190601f1680156106045780820380516001836020036101000a031916815260200191505b509550505050505060405180910390a150505050565b6002340247101561062a57600080fd5b600061063c6000600562030d40610bfc565b90507fcdd755170296942af9549272d6a3c69dc91e2aefe8e51e428d3b552d00825457816040518082815260200191505060405180910390a1336007600083815260200190815260200160002060000160006101000a81548173ffffffffffffffffffffffffffffffffffffffff021916908373ffffffffffffffffffffffffffffffffffffffff16021790555034600760008381526020019081526020016000206001018190555050565b60008054906101000a900473ffffffffffffffffffffffffffffffffffffffff1681565b60068054600181600116156101000203166002900480601f0160208091040260200160405190810160405280929190818152602001828054600181600116156101000203166002900480156107a25780601f10610777576101008083540402835291602001916107a2565b820191906000526020600020905b81548152906001019060200180831161078557829003601f168201915b505050505081565b60008073ffffffffffffffffffffffffffffffffffffffff16600260009054906101000a900473ffffffffffffffffffffffffffffffffffffffff1673ffffffffffffffffffffffffffffffffffffffff16148061083257506000610830600260009054906101000a900473ffffffffffffffffffffffffffffffffffffffff16611221565b145b1561084357610841600061122c565b505b600260009054906101000a900473ffffffffffffffffffffffffffffffffffffffff1673ffffffffffffffffffffffffffffffffffffffff166338cc48316040518163ffffffff1660e01b8152600401602060405180830381600087803b1580156108ad57600080fd5b505af11580156108c1573d6000803e3d6000fd5b505050506040513d60208110156108d757600080fd5b810190808051906020019092919050505073ffffffffffffffffffffffffffffffffffffffff16600160009054906101000a900473ffffffffffffffffffffffffffffffffffffffff1673ffffffffffffffffffffffffffffffffffffffff1614610a2257600260009054906101000a900473ffffffffffffffffffffffffffffffffffffffff1673ffffffffffffffffffffffffffffffffffffffff166338cc48316040518163ffffffff1660e01b8152600401602060405180830381600087803b1580156109a657600080fd5b505af11580156109ba573d6000803e3d6000fd5b505050506040513d60208110156109d057600080fd5b8101908080519060200190929190505050600160006101000a81548173ffffffffffffffffffffffffffffffffffffffff021916908373ffffffffffffffffffffffffffffffffffffffff1602179055505b600160009054906101000a900473ffffffffffffffffffffffffffffffffffffffff1673ffffffffffffffffffffffffffffffffffffffff1663c281d19e6040518163ffffffff1660e01b8152600401602060405180830381600087803b158015610a8c57600080fd5b505af1158015610aa0573d6000803e3d6000fd5b505050506040513d6020811015610ab657600080fd5b8101908080519060200190929190505050905090565b60007f4c0000000000000000000000000000000000000000000000000000000000000082600081518110610afc57fe5b602001015160f81c60f81b7effffffffffffffffffffffffffffffffffffffffffffffffffffffffffffff1916141580610b8f57507f500000000000000000000000000000000000000000000000000000000000000082600181518110610b5f57fe5b602001015160f81c60f81b7effffffffffffffffffffffffffffffffffffffffffffffffffffffffffffff191614155b80610bbb5750600160ff1682600281518110610ba757fe5b602001015160f81c60f81b60f81c60ff1614155b15610bc95760019050610bf5565b6000610bde838686610bd961123d565b6112df565b905080610bef576002915050610bf5565b60009150505b9392505050565b60008083118015610c0e575060208311155b610c1757600080fd5b600a840293506060600167ffffffffffffffff81118015610c3757600080fd5b506040519080825280601f01601f191660200182016040528015610c6a5781602001600182028036833780820191505090505b5090508360f81b81600081518110610c7e57fe5b60200101907effffffffffffffffffffffffffffffffffffffffffffffffffffffffffffff1916908160001a9053506060602067ffffffffffffffff81118015610cc757600080fd5b506040519080825280601f01601f191660200182016040528015610cfa5781602001600182028036833780820191505090505b5090506060602067ffffffffffffffff81118015610d1757600080fd5b506040519080825280601f01601f191660200182016040528015610d4a5781602001600182028036833780820191505090505b5090506000610d576119fe565b9050602083524241186001430340186020840152602082528060208301526060602067ffffffffffffffff81118015610d8f57600080fd5b506040519080825280601f01601f191660200182016040528015610dc25781602001600182028036833780820191505090505b5090508860208201526060600867ffffffffffffffff81118015610de557600080fd5b506040519080825280601f01601f191660200182016040528015610e185781602001600182028036833780820191505090505b509050610e2b8260186008846000611d1e565b50610e346137e5565b60405180608001604052808781526020018881526020018681526020018481525090506000610e996040518060400160405280600681526020017f72616e646f6d0000000000000000000000000000000000000000000000000000815250838c611d7d565b90506060600867ffffffffffffffff81118015610eb557600080fd5b506040519080825280601f01601f191660200182016040528015610ee85781602001600182028036833780820191505090505b50905060208401517f0100000000000000000000000000000000000000000000000000000000000000810460278301537e01000000000000000000000000000000000000000000000000000000000000810460268301537d010000000000000000000000000000000000000000000000000000000000810460258301537c0100000000000000000000000000000000000000000000000000000000810460248301537b01000000000000000000000000000000000000000000000000000000810460238301537a01000000000000000000000000000000000000000000000000000081046022830153790100000000000000000000000000000000000000000000000000810460218301537801000000000000000000000000000000000000000000000000810460208301535061120e82828560016004811061102757fe5b602002015160028760006004811061103b57fe5b60200201516040518082805190602001908083835b602083106110735780518252602082019150602081019050602083039250611050565b6001836020036101000a038019825116818451168082178552505050505050905001915050602060405180830381855afa1580156110b5573d6000803e3d6000fd5b5050506040513d60208110156110ca57600080fd5b8101908080519060200190929190505050876002600481106110e857fe5b60200201516040516020018085805190602001908083835b602083106111235780518252602082019150602081019050602083039250611100565b6001836020036101000a03801982511681845116808217855250505050505090500184805190602001908083835b602083106111745780518252602082019150602081019050602083039250611151565b6001836020036101000a03801982511681845116808217855250505050505090500183815260200182805190602001908083835b602083106111cb57805182526020820191506020810190506020830392506111a8565b6001836020036101000a03801982511681845116808217855250505050505090500194505050505060405160208183030381529060405280519060200120612103565b8199505050505050505050509392505050565b6000813b9050919050565b600061123661211f565b9050919050565b606060038054600181600116156101000203166002900480601f0160208091040260200160405190810160405280929190818152602001828054600181600116156101000203166002900480156112d55780601f106112aa576101008083540402835291602001916112d5565b820191906000526020600020905b8154815290600101906020018083116112b857829003601f168201915b5050505050905090565b60008060206002876045815181106112f357fe5b602001015160f81c60f81b60f81c60ff16016044010190506060602067ffffffffffffffff8111801561132557600080fd5b506040519080825280601f01601f1916602001820160405280156113585781602001600182028036833780820191505090505b50905061136a87836020846000611d1e565b50600284876040516020018083805190602001908083835b602083106113a55780518252602082019150602081019050602083039250611382565b6001836020036101000a038019825116818451168082178552505050505050905001828152602001925050506040516020818303038152906040526040518082805190602001908083835b6020831061141357805182526020820191506020810190506020830392506113f0565b6001836020036101000a038019825116818451168082178552505050505050905001915050602060405180830381855afa158015611455573d6000803e3d6000fd5b5050506040513d602081101561146a57600080fd5b810190808051906020019092919050505060405160200180828152602001915050604051602081830303815290604052805190602001208180519060200120146114b9576000925050506119f6565b606060028860016049860101815181106114cf57fe5b602001015160f81c60f81b60f81c60ff160167ffffffffffffffff811180156114f757600080fd5b506040519080825280601f01601f19166020018201604052801561152a5781602001600182028036833780820191505090505b50905061153f88604985018351846000611d1e565b5061160a6002826040518082805190602001908083835b602083106115795780518252602082019150602081019050602083039250611556565b6001836020036101000a038019825116818451168082178552505050505050905001915050602060405180830381855afa1580156115bb573d6000803e3d6000fd5b5050506040513d60208110156115d057600080fd5b8101908080519060200190929190505050878a60086020880101815181106115f457fe5b602001015160f81c60f81b60f81c60ff16612676565b61161a57600093505050506119f6565b6060602967ffffffffffffffff8111801561163457600080fd5b506040519080825280601f01601f1916602001820160405280156116675781602001600182028036833780820191505090505b50905061167c89602086016029846000611d1e565b506060604067ffffffffffffffff8111801561169757600080fd5b506040519080825280601f01601f1916602001820160405280156116ca5781602001600182028036833780820191505090505b50905060006041845160296020890101010190506116f08b604083036040856000611d1e565b5060006002836040518082805190602001908083835b602083106117295780518252602082019150602081019050602083039250611706565b6001836020036101000a038019825116818451168082178552505050505050905001915050602060405180830381855afa15801561176b573d6000803e3d6000fd5b5050506040513d602081101561178057600080fd5b8101908080519060200190929190505050905083816040516020018083805190602001908083835b602083106117cb57805182526020820191506020810190506020830392506117a8565b6001836020036101000a0380198251168184511680821785525050505050509050018281526020019250505060405160208183030381529060405280519060200120600460008d815260200190815260200160002054141561184357600460008c815260200190815260200160002060009055611853565b60009750505050505050506119f6565b6060604967ffffffffffffffff8111801561186d57600080fd5b506040519080825280601f01601f1916602001820160405280156118a05781602001600182028036833780820191505090505b5090506118b28d896049846000611d1e565b5061195b6002826040518082805190602001908083835b602083106118ec57805182526020820191506020810190506020830392506118c9565b6001836020036101000a038019825116818451168082178552505050505050905001915050602060405180830381855afa15801561192e573d6000803e3d6000fd5b5050506040513d602081101561194357600080fd5b81019080805190602001909291905050508786612723565b611970576000985050505050505050506119f6565b6005600083815260200190815260200160002060009054906101000a900460ff166119ca5761199f8d8461290f565b6005600084815260200190815260200160002060006101000a81548160ff0219169083151502179055505b6005600083815260200190815260200160002060009054906101000a900460ff16985050505050505050505b949350505050565b60008073ffffffffffffffffffffffffffffffffffffffff16600260009054906101000a900473ffffffffffffffffffffffffffffffffffffffff1673ffffffffffffffffffffffffffffffffffffffff161480611a8657506000611a84600260009054906101000a900473ffffffffffffffffffffffffffffffffffffffff16611221565b145b15611a9757611a95600061122c565b505b600260009054906101000a900473ffffffffffffffffffffffffffffffffffffffff1673ffffffffffffffffffffffffffffffffffffffff166338cc48316040518163ffffffff1660e01b8152600401602060405180830381600087803b158015611b0157600080fd5b505af1158015611b15573d6000803e3d6000fd5b505050506040513d6020811015611b2b57600080fd5b810190808051906020019092919050505073ffffffffffffffffffffffffffffffffffffffff16600160009054906101000a900473ffffffffffffffffffffffffffffffffffffffff1673ffffffffffffffffffffffffffffffffffffffff1614611c7657600260009054906101000a900473ffffffffffffffffffffffffffffffffffffffff1673ffffffffffffffffffffffffffffffffffffffff166338cc48316040518163ffffffff1660e01b8152600401602060405180830381600087803b158015611bfa57600080fd5b505af1158015611c0e573d6000803e3d6000fd5b505050506040513d6020811015611c2457600080fd5b8101908080519060200190929190505050600160006101000a81548173ffffffffffffffffffffffffffffffffffffffff021916908373ffffffffffffffffffffffffffffffffffffffff1602179055505b600160009054906101000a900473ffffffffffffffffffffffffffffffffffffffff1673ffffffffffffffffffffffffffffffffffffffff1663abaa5f3e6040518163ffffffff1660e01b815260040160206040518083038186803b158015611cde57600080fd5b505afa158015611cf2573d6000803e3d6000fd5b505050506040513d6020811015611d0857600080fd5b8101908080519060200190929190505050905090565b6060600082850190508084511015611d3557600080fd5b600086602001905060008460200190505b868860200101821015611d6e5781890151808288015250602082019150602081019050611d46565b85935050505095945050505050565b60008073ffffffffffffffffffffffffffffffffffffffff16600260009054906101000a900473ffffffffffffffffffffffffffffffffffffffff1673ffffffffffffffffffffffffffffffffffffffff161480611e0557506000611e03600260009054906101000a900473ffffffffffffffffffffffffffffffffffffffff16611221565b145b15611e1657611e14600061122c565b505b600260009054906101000a900473ffffffffffffffffffffffffffffffffffffffff1673ffffffffffffffffffffffffffffffffffffffff166338cc48316040518163ffffffff1660e01b8152600401602060405180830381600087803b158015611e8057600080fd5b505af1158015611e94573d6000803e3d6000fd5b505050506040513d6020811015611eaa57600080fd5b810190808051906020019092919050505073ffffffffffffffffffffffffffffffffffffffff16600160009054906101000a900473ffffffffffffffffffffffffffffffffffffffff1673ffffffffffffffffffffffffffffffffffffffff1614611ff557600260009054906101000a900473ffffffffffffffffffffffffffffffffffffffff1673ffffffffffffffffffffffffffffffffffffffff166338cc48316040518163ffffffff1660e01b8152600401602060405180830381600087803b158015611f7957600080fd5b505af1158015611f8d573d6000803e3d6000fd5b505050506040513d6020811015611fa357600080fd5b8101908080519060200190929190505050600160006101000a81548173ffffffffffffffffffffffffffffffffffffffff021916908373ffffffffffffffffffffffffffffffffffffffff1602179055505b6060600467ffffffffffffffff8111801561200f57600080fd5b5060405190808252806020026020018201604052801561204357816020015b606081526020019060019003908161202e5790505b5090508360006004811061205357fe5b60200201518160008151811061206557fe5b60200260200101819052508360016004811061207d57fe5b60200201518160018151811061208f57fe5b6020026020010181905250836002600481106120a757fe5b6020020151816002815181106120b957fe5b6020026020010181905250836003600481106120d157fe5b6020020151816003815181106120e357fe5b60200260200101819052506120f9858285612d9b565b9150509392505050565b8060046000848152602001908152602001600020819055505050565b60008061213f731d3b2638a7cc9f2cb3d298a3da7a90b67e5506ed611221565b11156121e157731d3b2638a7cc9f2cb3d298a3da7a90b67e5506ed600260006101000a81548173ffffffffffffffffffffffffffffffffffffffff021916908373ffffffffffffffffffffffffffffffffffffffff1602179055506121d86040518060400160405280600b81526020017f6574685f6d61696e6e6574000000000000000000000000000000000000000000815250613301565b60019050612673565b600061220073c03a2615d5efaf5f49f60b7bb6583eaec212fdf1611221565b11156122a25773c03a2615d5efaf5f49f60b7bb6583eaec212fdf1600260006101000a81548173ffffffffffffffffffffffffffffffffffffffff021916908373ffffffffffffffffffffffffffffffffffffffff1602179055506122996040518060400160405280600c81526020017f6574685f726f707374656e330000000000000000000000000000000000000000815250613301565b60019050612673565b60006122c173b7a07bcf2ba2f2703b24c0691b5278999c59ac7e611221565b11156123635773b7a07bcf2ba2f2703b24c0691b5278999c59ac7e600260006101000a81548173ffffffffffffffffffffffffffffffffffffffff021916908373ffffffffffffffffffffffffffffffffffffffff16021790555061235a6040518060400160405280600981526020017f6574685f6b6f76616e0000000000000000000000000000000000000000000000815250613301565b60019050612673565b600061238273146500cfd35b22e4a392fe0adc06de1a1368ed48611221565b11156124245773146500cfd35b22e4a392fe0adc06de1a1368ed48600260006101000a81548173ffffffffffffffffffffffffffffffffffffffff021916908373ffffffffffffffffffffffffffffffffffffffff16021790555061241b6040518060400160405280600b81526020017f6574685f72696e6b656279000000000000000000000000000000000000000000815250613301565b60019050612673565b600061244373a2998efd205fb9d4b4963afb70778d6354ad3a41611221565b11156124e55773a2998efd205fb9d4b4963afb70778d6354ad3a41600260006101000a81548173ffffffffffffffffffffffffffffffffffffffff021916908373ffffffffffffffffffffffffffffffffffffffff1602179055506124dc6040518060400160405280600a81526020017f6574685f676f65726c6900000000000000000000000000000000000000000000815250613301565b60019050612673565b6000612504736f485c8bf6fc43ea212e93bbf8ce046c7f1cb475611221565b111561256857736f485c8bf6fc43ea212e93bbf8ce046c7f1cb475600260006101000a81548173ffffffffffffffffffffffffffffffffffffffff021916908373ffffffffffffffffffffffffffffffffffffffff16021790555060019050612673565b60006125877320e12a1f859b3feae5fb2a0a32c18f5a65555bbf611221565b11156125eb577320e12a1f859b3feae5fb2a0a32c18f5a65555bbf600260006101000a81548173ffffffffffffffffffffffffffffffffffffffff021916908373ffffffffffffffffffffffffffffffffffffffff16021790555060019050612673565b600061260a7351efaf4c8b3c9afbd5ab9f4bbc82784ab6ef8faa611221565b111561266e577351efaf4c8b3c9afbd5ab9f4bbc82784ab6ef8faa600260006101000a81548173ffffffffffffffffffffffffffffffffffffffff021916908373ffffffffffffffffffffffffffffffffffffffff16021790555060019050612673565b600090505b90565b600080600190508284511461268a57600080fd5b60005b83811015612717578481815181106126a157fe5b602001015160f81c60f81b7effffffffffffffffffffffffffffffffffffffffffffffffffffffffffffff19168682602081106126da57fe5b1a60f81b7effffffffffffffffffffffffffffffffffffffffffffffffffffffffffffff19161461270a57600091505b808060010191505061268d565b50809150509392505050565b60008060008060006060602067ffffffffffffffff8111801561274557600080fd5b506040519080825280601f01601f1916602001820160405280156127785781602001600182028036833780820191505090505b509050600060208960038151811061278c57fe5b602001015160f81c60f81b60f81c60ff160360040190506127b289826020856000611d1e565b91506060602067ffffffffffffffff811180156127ce57600080fd5b506040519080825280601f01601f1916602001820160405280156128015781602001600182028036833780820191505090505b50905060228201915061283d8a60208c600186038151811061281f57fe5b602001015160f81c60f81b60f81c60ff160384016020846000611d1e565b9050602083015194506020810151935061285a8b601b878761331b565b80975081985050508573ffffffffffffffffffffffffffffffffffffffff16898051906020012060001c73ffffffffffffffffffffffffffffffffffffffff1614156128b0576001975050505050505050612908565b6128bd8b601c878761331b565b80975081985050508573ffffffffffffffffffffffffffffffffffffffff16898051906020012060001c73ffffffffffffffffffffffffffffffffffffffff16149750505050505050505b9392505050565b6000806060600285600186018151811061292557fe5b602001015160f81c60f81b60f81c60ff160167ffffffffffffffff8111801561294d57600080fd5b506040519080825280601f01601f1916602001820160405280156129805781602001600182028036833780820191505090505b50905061299285858351846000611d1e565b506060604067ffffffffffffffff811180156129ad57600080fd5b506040519080825280601f01601f1916602001820160405280156129e05781602001600182028036833780820191505090505b5090506129f38660046040846000611d1e565b506060606267ffffffffffffffff81118015612a0e57600080fd5b506040519080825280601f01601f191660200182016040528015612a415781602001600182028036833780820191505090505b509050600160f81b81600081518110612a5657fe5b60200101907effffffffffffffffffffffffffffffffffffffffffffffffffffffffffffff1916908160001a905350612a9787604188036041846001611d1e565b5060606040518060400160405280602081526020017ffd94fa71bc0ba10d39d464d0d8f465efeef0a2764e3887fcc9df41ded20f505c8152509050612ae28160006020856042611d1e565b50612b8b6002836040518082805190602001908083835b60208310612b1c5780518252602082019150602081019050602083039250612af9565b6001836020036101000a038019825116818451168082178552505050505050905001915050602060405180830381855afa158015612b5e573d6000803e3d6000fd5b5050506040513d6020811015612b7357600080fd5b81019080805190602001909291905050508585612723565b945084612ba057600095505050505050612d95565b60606040518060600160405280604081526020016138c46040913990506060604267ffffffffffffffff81118015612bd757600080fd5b506040519080825280601f01601f191660200182016040528015612c0a5781602001600182028036833780820191505090505b50905060fe60f81b81600081518110612c1f57fe5b60200101907effffffffffffffffffffffffffffffffffffffffffffffffffffffffffffff1916908160001a905350612c5e8a60036041846001611d1e565b50606060028b604581518110612c7057fe5b602001015160f81c60f81b60f81c60ff160167ffffffffffffffff81118015612c9857600080fd5b506040519080825280601f01601f191660200182016040528015612ccb5781602001600182028036833780820191505090505b509050612cde8b60448351846000611d1e565b50612d876002836040518082805190602001908083835b60208310612d185780518252602082019150602081019050602083039250612cf5565b6001836020036101000a038019825116818451168082178552505050505050905001915050602060405180830381855afa158015612d5a573d6000803e3d6000fd5b5050506040513d6020811015612d6f57600080fd5b81019080805190602001909291905050508285612723565b975087985050505050505050505b92915050565b60008073ffffffffffffffffffffffffffffffffffffffff16600260009054906101000a900473ffffffffffffffffffffffffffffffffffffffff1673ffffffffffffffffffffffffffffffffffffffff161480612e2357506000612e21600260009054906101000a900473ffffffffffffffffffffffffffffffffffffffff16611221565b145b15612e3457612e32600061122c565b505b600260009054906101000a900473ffffffffffffffffffffffffffffffffffffffff1673ffffffffffffffffffffffffffffffffffffffff166338cc48316040518163ffffffff1660e01b8152600401602060405180830381600087803b158015612e9e57600080fd5b505af1158015612eb2573d6000803e3d6000fd5b505050506040513d6020811015612ec857600080fd5b810190808051906020019092919050505073ffffffffffffffffffffffffffffffffffffffff16600160009054906101000a900473ffffffffffffffffffffffffffffffffffffffff1673ffffffffffffffffffffffffffffffffffffffff161461301357600260009054906101000a900473ffffffffffffffffffffffffffffffffffffffff1673ffffffffffffffffffffffffffffffffffffffff166338cc48316040518163ffffffff1660e01b8152600401602060405180830381600087803b158015612f9757600080fd5b505af1158015612fab573d6000803e3d6000fd5b505050506040513d6020811015612fc157600080fd5b8101908080519060200190929190505050600160006101000a81548173ffffffffffffffffffffffffffffffffffffffff021916908373ffffffffffffffffffffffffffffffffffffffff1602179055505b6000600160009054906101000a900473ffffffffffffffffffffffffffffffffffffffff1673ffffffffffffffffffffffffffffffffffffffff16632ef3accc86856040518363ffffffff1660e01b81526004018080602001838152602001828103825284818151815260200191508051906020019080838360005b838110156130aa57808201518184015260208101905061308f565b50505050905090810190601f1680156130d75780820380516001836020036101000a031916815260200191505b509350505050602060405180830381600087803b1580156130f757600080fd5b505af115801561310b573d6000803e3d6000fd5b505050506040513d602081101561312157600080fd5b81019080805190602001909291905050509050823a02670de0b6b3a764000001811115613154576000801b9150506132fa565b606061315f8561335f565b9050600160009054906101000a900473ffffffffffffffffffffffffffffffffffffffff1673ffffffffffffffffffffffffffffffffffffffff1663c55c1cb68360008985896040518663ffffffff1660e01b8152600401808581526020018060200180602001848152602001838103835286818151815260200191508051906020019080838360005b838110156132045780820151818401526020810190506131e9565b50505050905090810190601f1680156132315780820380516001836020036101000a031916815260200191505b50838103825285818151815260200191508051906020019080838360005b8381101561326a57808201518184015260208101905061324f565b50505050905090810190601f1680156132975780820380516001836020036101000a031916815260200191505b5096505050505050506020604051808303818588803b1580156132b957600080fd5b505af11580156132cd573d6000803e3d6000fd5b50505050506040513d60208110156132e457600080fd5b8101908080519060200190929190505050925050505b9392505050565b806003908051906020019061331792919061380c565b5050565b60008060008060405188815287602082015286604082015285606082015260208160808360006001610bb8f192508051915050818193509350505094509492505050565b60606133696133dc565b61337161388c565b61337d816104006133e8565b61338681613432565b60005b83518110156133c5576133b88482815181106133a157fe5b60200260200101518361344090919063ffffffff16565b8080600101915050613389565b506133cf81613465565b8060000151915050919050565b60405180590338823950565b60008190506000602082816133f957fe5b0614613412576020818161340957fe5b06602003810190505b808360200181815250506040518084526000815281810160405250505050565b61343d816004613473565b50565b61344d8260028351613494565b61346081836135d490919063ffffffff16565b505050565b613470816007613473565b50565b613490601f60058360ff16901b178361367f90919063ffffffff16565b5050565b601781116134c0576134bb8160058460ff16901b60ff16178461367f90919063ffffffff16565b6135cf565b60ff8111613501576134e5601860058460ff16901b178461367f90919063ffffffff16565b6134fb816001856136bf9092919063ffffffff16565b506135ce565b61ffff811161354357613527601960058460ff16901b178461367f90919063ffffffff16565b61353d816002856136bf9092919063ffffffff16565b506135cd565b63ffffffff81116135875761356b601a60058460ff16901b178461367f90919063ffffffff16565b613581816004856136bf9092919063ffffffff16565b506135cc565b67ffffffffffffffff81116135cb576135b3601b60058460ff16901b178461367f90919063ffffffff16565b6135c9816008856136bf9092919063ffffffff16565b505b5b5b5b5b505050565b6135dc61388c565b8260200151836000015151835101111561360c5761360b83600261360586602001518651613726565b02613742565b5b60008060008451905085518051602081830101945086518101825260208701935050505b602081106136535781518352602083019250602082019150602081039050613630565b60006001826020036101000a039050801983511681855116818117865250508694505050505092915050565b816020015160018360000151510111156136a5576136a4826002846020015102613742565b5b815180516020818301018381536001820183525050505050565b6136c761388c565b8360200151846000015151830111156136f5576136f48460026136ee876020015186613726565b02613742565b5b60006001836101000a0390508451805184818301018684198251161781528582018352505050849150509392505050565b6000818311156137385782905061373c565b8190505b92915050565b60608260000151905061375583836133e8565b61375f83826135d4565b50505050565b828054600181600116156101000203166002900490600052602060002090601f016020900481019282601f106137a657805160ff19168380011785556137d4565b828001600101855582156137d4579182015b828111156137d35782518255916020019190600101906137b8565b5b5090506137e191906138a6565b5090565b60405180608001604052806004905b60608152602001906001900390816137f45790505090565b828054600181600116156101000203166002900490600052602060002090601f016020900481019282601f1061384d57805160ff191683800117855561387b565b8280016001018555821561387b579182015b8281111561387a57825182559160200191906001019061385f565b5b50905061388891906138a6565b5090565b604051806040016040528060608152602001600081525090565b5b808211156138bf5760008160009055506001016138a7565b509056fe7fb956469c5c9b89840d55b43537e66a98dd4811ea0a27224272c2e5622911e8537a2f8e86a46baec82864e98dd01e9ccc2f8bc5dfc9cbe5a91a290498dd96e4a2646970667358221220f0843757fba689fcd0bdc963422ee5483901f18f643359fc551cb34f1c3a31e264736f6c634300060c0033",
  "immutableReferences": {},
  "source": "import \"./Ownable.sol\";\r\nimport \"./provableAPI.sol\";\r\npragma solidity 0.6.12;\r\n\r\ncontract Coinflip is Ownable, usingProvable {\r\n\r\nconstructor () public payable {\r\n  provable_setProof(proofType_Ledger);\r\n} // Payable because we want to deploy with ether.\r\n\r\n  bytes public resulttest;\r\n\r\n  struct Bet { // We use this struct to map query IDs to bet data.\r\n    address payable bettor_address;\r\n    uint256 betamount;\r\n    uint256 flipresult;\r\n  }\r\n\r\n  mapping (bytes32 => Bet) queries; //Create the mapping where we are gonna store every queryID and the player address, bet amount and result corresponding to that ID.\r\n\r\n  event QueryInitiated ( // Emit event with query ID for JS to listen for.\r\n    bytes32 InitialQueryID\r\n  );\r\n\r\n  event QueryCompleted (\r\n    bytes32 returnedQueryID,\r\n    uint256 betResult,\r\n    uint256 netamount,\r\n    bytes proof\r\n  );\r\n\r\n  function __callback(bytes32 _queryId, string memory _result, bytes memory _proof) public {\r\n    require(msg.sender == provable_cbAddress());\r\n    require(provable_randomDS_proofVerify__returnCode(_queryId,_result,_proof) == 0); // Require that the proof check passes.\r\n    resulttest = bytes(_result);\r\n    uint256 randomnumber = uint256(keccak256(abi.encodePacked(_result))) % 2; // Takes the result, encodes it, hashes it, converts it to an integer and returns either 0 or 1 if its even / odd respectively.\r\n    queries[_queryId].flipresult = randomnumber; //Now we have the result of the flip - let's say 1 == win. We store it in the mapping.\r\n    if (queries[_queryId].flipresult == 1){ // Pay out double 50% of the time.\r\n      queries[_queryId].bettor_address.transfer(queries[_queryId].betamount * 2);\r\n    }\r\n    emit QueryCompleted(_queryId, queries[_queryId].flipresult, queries[_queryId].betamount, _proof); // Here we emit the data we got from the oracle.\r\n  }\r\n\r\n  function Flip() public payable { //This is what the user of the dApp calls when they make a bet.\r\n    if (address(this).balance < (msg.value * 2)){ //Contract balance needs to be twice the size of the bet to pay out a win, so it won't accept bets if it has less than that.\r\n    revert();\r\n    }\r\n    bytes32 queryId = provable_newRandomDSQuery(0, 5, 200000); // Takes delay before execution, number of bytes requested and gas provided for callback as arguments.\r\n    emit QueryInitiated(queryId); // Emits query ID to track in JS\r\n    queries[queryId].bettor_address = msg.sender; //Map bettor address to random number query ID.\r\n    queries[queryId].betamount = msg.value; //Map bet amount to random number query ID.\r\n  }\r\n\r\n  function withdraw(uint amount) public onlyOwner{ //Withdraws specified amount in wei\r\n    msg.sender.transfer(amount);\r\n  }\r\n}\r\n",
  "sourcePath": "C:/Users/rauno/Desktop/Computer Science/Truffle/Coinflip/contracts/coinflip.sol",
  "compiler": {
    "name": "solc",
    "version": "0.6.12+commit.27d51765.Emscripten.clang"
  },
  "schemaVersion": "3.3.2",
  "updatedAt": "2020-12-09T13:28:50.081Z",
  "devdoc": {
    "kind": "dev",
    "methods": {},
    "version": 1
  },
  "userdoc": {
    "kind": "user",
    "methods": {},
    "version": 1
  }
}